:020000040800F2
:100000009806002029020008310200083302000887
:10001000350200083702000839020008000000001D
:100020000000000000000000000000003B0200088B
:100030003D020008000000003F02000841020008E5
:10004000430200084302000843020008430200087C
:10005000430200084302000843020008430200086C
:10006000430200084302000843020008430200085C
:10007000430200084302000843020008430200084C
:10008000430200084302000843020008430200083C
:10009000430200084302000843020008430200082C
:1000A000430200084302000843020008430200081C
:1000B000430200084302000843020008430200080C
:1000C00043020008430200084302000843020008FC
:1000D00043020008430200084302000843020008EC
:1000E00043020008430200084302000843020008DC
:1000F00043020008430200084302000843020008CC
:1001000043020008430200084302000843020008BB
:1001100043020008430200084302000843020008AB
:10012000430200084302000843020008430200089B
:10013000430200084302000843020008430200088B
:10014000430200084302000843020008430200087B
:10015000430200084302000843020008430200086B
:10016000430200084302000843020008430200085B
:100170004302000843020008430200080000000098
:10018000430200084302000800F002F800F03CF8C7
:100190000AA090E8000C82448344AAF10107DA45E2
:1001A00001D100F031F8AFF2090EBAE80F0013F0F8
:1001B000010F18BFFB1A43F001031847001100009C
:1001C00020110000103A24BF78C878C1FAD852072D
:1001D00024BF30C830C144BF04680C6070470000C1
:1001E0000023002400250026103A28BF78C1FBD840
:1001F000520728BF30C148BF0B6070471FB501F0E0
:1002000042F81FBD10B510BD00F031F81146FFF7E0
:10021000F5FF00F0FBFA00F04FF803B4FFF7F2FF30
:1002200003BC00F057F80000094880470948004720
:10023000FEE7FEE7FEE7FEE7FEE7FEE7FEE7FEE796
:10024000FEE7FEE704480549054A064B70470000F3
:100250008104000889010008980000209806002009
:10026000980200209802002070477047704775463A
:1002700000F02CF8AE4605006946534620F0070012
:10028000854618B020B5FFF7DDFFBDE820404FF0F0
:1002900000064FF000074FF000084FF0000B21F070
:1002A0000701AC46ACE8C009ACE8C009ACE8C0093D
:1002B000ACE8C0098D46704710B50446AFF3008026
:1002C0002046BDE81040FFF7A8BF00000048704777
:1002D0003800002001491820ABBEFEE726000200CE
:1002E00070470000F0B5424E414C0836002804D05B
:1002F00001280AD0022810D068E0216841F00101ED
:10030000216021688907FCD560E0216841F48031D3
:10031000216021688903FCD558E0236823F08073AD
:10032000236023685B0EDB07FBD193684FF0FF353A
:1003300005EB5303936011B1012908D00EE0236847
:1003400043F00103236023689B07FCD506E0236884
:1003500043F48033236023689B03FCD5002343F6DA
:1003600098255B1CAB42FCDB214B1B1D1F68DFF893
:1003700084C007EA0C071F60D2E9007C47EA8C17AB
:10038000B2F808C0127B4FEA0C4C4CEA02621743E9
:100390001A6847EA8151114319600021491CA9429A
:1003A000FCDB31684FF6F042914331600021491C7B
:1003B000A942FCDB0021491CA942FCDB216841F079
:1003C000807121602168490EC907FBD0326831680D
:1003D00021F0030101430A4332603168C1F3810116
:1003E0008142FAD1306820F0F0003060F0BD0000AA
:1003F000003802400080BCF070B51D4E306800F03F
:100400000C001C4B1C4900280ED05D1004280DD098
:1004100008280DD04B603068184AC0F30310105CF8
:100420004A68C2404A6070BD4B60F4E74D60F2E735
:100430000F4A121F1068C0F38054106800F03F008C
:1004400034B1B5FBF0F01368C3F38813584305E0EB
:10045000B3FBF0F01368C3F3881358431268C2F378
:100460000142521C5200B0FBF2F04860D3E700009A
:10047000083802400024F40020000020AC120008DC
:1004800010B51448016840F202721143016012482D
:10049000042404606421416002218160C46002463A
:1004A00001210220FFF71EFFFFF7A6FF0B480521E1
:1004B000017044701F2181700146406800F0D8F936
:1004C0000748016841F47001016005496006803900
:1004D000086010BD003C02402800002020000020E1
:1004E00088ED00E00000000010B52DED020B2DEDB1
:1004F000088B84B09DED0C0B51EC100B00F00EFD41
:1005000041EC180B9DED0C0B53EC182B51EC100B20
:1005100000F05EFD41EC190B0D989FED290B10F0DA
:10052000004F53EC102B51EC190B9FED21AB9FEDBD
:1005300022BB0ED000F02CFC0ED953EC1B2B51EC3F
:10054000190B00F0B5FC1CD214E000BF41EC180BF5
:1005500017E000F01DFC06D253EC1A2B51EC180BDF
:1005600000F036FDF2E753EC1B2B51EC190B00F0B9
:100570009FFC06D853EC1A2B51EC180B00F026FB0D
:10058000E4E78DED028B9DED0C0B18EE901A10EE4A
:10059000900A8DED000B61F31E0003909DED020BA0
:1005A00004B0BDEC088B02B010BD000000000000DC
:1005B000000000000000F03F000000000000E03FED
:1005C000000000000000E0BF3EB504460749D1E945
:1005D00000238968CDE9002302916946204600F096
:1005E00027F8204600F060F93EBD0000A012000888
:1005F000F0B54FF47A7100FB01F700243C25CE06DC
:1006000004E07562012000F004F8641CBC42F8D3D9
:10061000F0BD00214FF0804207E01369DB07FCD0FA
:10062000136923F001031361491C8142F5D370471C
:1006300070B5B0F1804F05D04C4B0022984202D1EA
:10064000012301E0012200231A43494B984201D1C2
:10065000012300E000231A43464B984201D10123B5
:1006600000E000231A43444B984201D1012300E0EB
:1006700000231A43414B984201D1012300E000239B
:100680001A433F4B984201D1012300E000231A4353
:100690003C4B984201D1012300E000231A433A4B1E
:1006A000984201D1012300E000231A434FF00104D6
:1006B0004FF47C7609D0A0F1804292FBF6F2944090
:1006C000324A13681C4314603BE0314A904201D126
:1006D000012200E000222F4B984201D1012300E0CB
:1006E00000232D4D1A430DD0294A5423524202446F
:1006F00092FBF3F20C23B2FBF3F294402A6814430A
:100700002C601EE0254A904201D1012200E0002227
:10071000234B984201D1012300E000231A43214BCF
:10072000984201D1012300E000231A4309D01B4A5B
:100730005242024492FBF6F2103294402A6814436B
:100740002C6002680B7822F0100242EA0312036860
:100750001A4302608A8882620268036823F0800379
:100760001A4302608968C16270BD00000004004045
:1007700000080040000C0040001000400014004041
:1007800000180040001C004000200040403802409B
:100790000000014000040140443802400040014094
:1007A000004401400048014010B51648006800F0C0
:1007B0000C011548002915D04410042911D008292E
:1007C00010D1104A121F1168C1F38053116801F053
:1007D0003F0143B1B4FBF1F01168C1F38811484304
:1007E00007E0204610BDB0FBF1F01168C1F388119D
:1007F00048431168C1F30141491C4900B0FBF1F0C5
:1008000010BD0000083802400024F40086B000F05B
:100810002BF8114890E80E00C068CDE9032302913F
:10082000059002A800210B46009109220B4900F017
:1008300041F80C4D0A4C6E1E0020327806E021680B
:100840000906FCD5295C6160401C80B29042F6D359
:10085000C820FFF7CDFEEFE790120008000002402D
:1008600000100140010000204FF08040FFF7ACBEB7
:100870000C4802680B781A43036823F4E0531A43C8
:10088000026002684B781A43036823F460431A43FA
:100890000260026889780A43016821F4F8110A436A
:1008A0000260704708380240016841F001010160B0
:1008B000704700002DE9F05F04462DED028B0C9F80
:1008C000DFF8E8C26068DFF8E88201264FF47C7543
:1008D000604501D0404516D1DFF8D092C9F100093A
:1008E000484490FBF5F5B348D0F800902D1D29F051
:1008F000300906FA05F549EA0509056849EA0509D6
:10090000C0F8009014E0DFF8B092484490FBF5F591
:10091000A848001FD0F80090113529F4F01906FA04
:1009200005F549EA0509056849EA0509C0F8009096
:10093000A24D4FF47A79481990FBF9F006FA00FAC3
:100940009C481438D0F800B04AEA0B0AC0F800A05E
:100950001D4495FBF9F5D0F8009006FA05F545EA37
:1009600009050560D1F8009055004FF0030A0AFA16
:1009700005F04FF0020B29EA00090BFA05F549EAE8
:1009800005090D6849EA0509C1F80090D3F80090FF
:100990007D000AFA05FA0BFA05FB29EA0A091D6827
:1009A00049EA0B0949EA0509C3F80090A578022D28
:1009B00001D0032D10D14D689640B5434E683543A4
:1009C0004D608D688E688543054335438D60CD68E5
:1009D0008543C8680543CD60D508520701EB850102
:1009E0000F264FEAD26906FA09F5FA0803EB8202EC
:1009F0007B07DB0E60689E40604506D06E4F7F42ED
:100A0000B84202D06E4FB84219D1A0780727022809
:100A100004D0032802D0012809D031E0086A07FA7F
:100A200009F7A8430A6A38431043086228E0106AAD
:100A30009F40B043116A38430843106220E0614F81
:100A4000B84204D0604FB84201D0404518D1A078D8
:100A50000827022804D0032802D0012809D00FE07B
:100A6000086A07FA09F7A8430A6A3843104308627C
:100A700006E0106A9F40B043116A38430843106291
:100A8000A078A17B800040EA8120E17B40EA412000
:100A9000217B40EA0130617B40EAC13040F40051E3
:100AA0006068C2684BF20C639A43C2606068C268B7
:100AB0000A43C260607801036068026922F4405210
:100AC0000261606802690A430261FFF76DFE014638
:100AD000207808B1012863D1607BA268C0F10203CD
:100AE0005A43D200B1FBF2F100EE101AB8EE408A80
:100AF000002510B1012829D052E0BDEEC80AF3EE5E
:100B0000000AB8EEC00A38EE400A20EE200A10EEC5
:100B1000100A00F047FB41EC100BFFF7E5FC51EC2D
:100B2000100B00F007F90F2801D9012100E0002186
:100B3000BCEEC80A10EE102A0A4461688D60616834
:100B40008B6840EA021003438B6029E0BDEEC80ABF
:100B5000F2EE000AB8EEC00A38EE400A20EE200A93
:100B600010EE100A00F01EFB41EC100BFFF7BCFC6E
:100B700051EC100B00F0DEF8072801D9012100E04C
:100B80000021BCEEC80A10EE102A1144626895607C
:100B900000F0070040EA011160688268114381603B
:100BA0000020BDEC028BBDE8F09F0000001001406A
:100BB000001401404438024000BCFFBF0000FEBFEB
:100BC00000480040004C00400050004010B591EA41
:100BD000030F48BF83F0004300F10282841A71EBD7
:100BE000030C05D2121943EB0C03001B61EB0C0143
:100BF000DFF824E14FEA1154A4EB135C1EEA430F23
:100C000018BF9EEA445F73D023EA0E03DCF1200E86
:100C100021EA045143F4801332D322FA0CFE10EB84
:100C20000E0023FA0CFE41EB0E01CCF1200E03FA6C
:100C30000EFE10EB0E0051F10001B1F5801FCCF15A
:100C4000200E32D201EB045112FA0EF2BDE8104030
:100C500058BF7047401C38BF5FEA420218BF704758
:100C6000002814BF20F0010041F100014FEA4103C8
:100C700013F5001F38BF7047A1F1C04100F012B951
:100C8000012A43EB0302ACF1200CDCF11F0E32BF52
:100C90004FF0000E23FA0CF310EB030041EB04516C
:100CA000B4EB115FD0D0A1EB045101F580114908DC
:100CB0005FEA300001EB04510ED350F1000038BF61
:100CC00012FA0EFE08D1BDE81040C9E7401C38BF3B
:100CD0005FEA4202CAD1C3E7BDE810404FEA4103D0
:100CE00013F5001F38BF7047A1F1C04100F0DAB81A
:100CF0009EEA445F08D011EA5E0FBDE8104004BFD1
:100D000001F0004100207047BDE8104070B500F0D0
:100D10007BF800BF64FBBE3E0000E0FF491058BFF7
:100D2000C1F140415B1058BFC3F140438B42EFF328
:100D3000008070474FEA1153A3F58063D3F11E037F
:100D4000A8BFD3F1200C08DB4FF0004242EAC122D9
:100D500052EA505232FA03F0704709420BD4102B7A
:100D6000C4BF0020704703F5787CBCF1FF3F05D07D
:100D70004FF0FF3070474FF00000704770B500F043
:100D800043F800BF4992248000207047F0E700003C
:100D900051EA030C17D41CF5801F58BFBCF5801F07
:100DA00000F10680994218BF704708BF9042704713
:100DB00007D711F5801F58BF13F5801F19D499422A
:100DC0007047894270471CF5801F08D5BCF5801F0D
:100DD000F7D58B4218BF704708BF824270474FF467
:100DE000001C1CEB410F38BF1CEB430F01D28B42A0
:100DF000704770B500F008F8922449004FF0005198
:100E00004FF08053FFF78ABF0EF1020E2EF0030E53
:100E10005EF8046B364205D4012A43EB030515F551
:100E2000001F12D8012841EB010C1CF5001F0CD843
:100E30000ED14FEAD17C15F5001F0CEB4C0C0CF1D8
:100E4000020C08BF4CEBD37C04E04FF0080C01E02F
:100E50004FEAD37C0CEB4C0526FA05F606F00706A4
:100E6000B6F1040C06D20EEB860CBDE870404CF0D7
:100E7000010C6047DFE80CF0090B02024FF0004163
:100E80004FF00000A1F5002170BD19461046012861
:100E900051EB010418BFD4F5001484BF002001F009
:100EA000004170BD0808A0F500114FEA31017047FC
:100EB00053EA010C17D41CF5801F58BFBCF5801FE6
:100EC00000F106808B4218BF704708BF824270470E
:100ED00007D713F5801F58BF11F5801F19D48B4217
:100EE00070479B4270471CF5801F08D5BCF5801FDA
:100EF000F7D5994218BF704708BF904270474FF42A
:100F0000001C1CEB430F38BF1CEB410F01D2994270
:100F100070470FB40CBC03BCFFF76BBF5FEA410C1A
:100F20005FEA5C5CACF580635B1C39D4D3F13402BE
:100F300040F34580B2F1200314DA4FF0010C0CFAB3
:100F400002FCACF101030340B3EB5C0220EA0300B6
:100F500008BF10EA0C0F98BF704710EB0C0041F16E
:100F6000000170470AD0C3F1200201FA02FC0128F7
:100F700021FA03F101FA03F14CF100004FF0010CEA
:100F80000CFA03FCACF10103B0F1004F21EA0301BC
:100F900008BF11EA0C0F4FF0000088BF6144704792
:100FA000B3F1FF3F28BF50EAC12C01F000414FF0E0
:100FB000000084BF41F07C5141F470017047B3F5EB
:100FC000806FB8BF704770B5FFF71EFF40DBB6BE3D
:100FD00010B591EA030F48BF83F000433FF5FEAD23
:100FE000841A71EB030C07D212198CF0004C43EBFE
:100FF0000C03001B61EB0C01DFF8A4E14FEA115474
:10100000A4EB135C1EEA430F18BF9EEA445F00F096
:10101000B08023EA6E03524221EA0451C3EB6E030F
:1010200038BF5B1EDCF1200E25D322FA0CFE10EB3C
:101030000E0043FA0CFE41EB0E01CCF1200E03FA38
:101040000EFE10EB0E0051F10001CCF1200E29D460
:1010500012FA0EF201EB0451BDE8104058BF704780
:10106000401C1CBFB2F1004F704700280CBF491C48
:1010700020F00100704712EB020E43EB030218BF91
:101080004FF0010E4EEA4202ACF1200CDCF11E0ED4
:1010900054D943FA0CFE10EB0E0051F1FF31CCF1A4
:1010A0001E0ED5D50EF1010E12FA0EFE404141EB97
:1010B000010101EB445C5FEA5C5C10D910EBDE706F
:1010C00001EB045138BFBEF1004FBDE8104018BF1E
:1010D000704700280CBF491C20F00100704730D237
:1010E0004FEAD42C11F5001124F400641BD0B1FA9E
:1010F00081F20B3AA41AA41ED2F12003914030FAD7
:1011000003F31943904001EBCC71002C01EB045127
:10111000BDE81040A8BF704701F1C0414FF000008A
:1011200001F000417047B0FA80F310FA03F100D1EA
:1011300010BDE41A173C4805C90AE4E701EB045165
:1011400010BD491001EB0451BDE810404FEA3000DA
:1011500002E04FF0000170474A0008BF0042F8D09B
:10116000B2F5001F28BF704701F000414FF00000AA
:1011700070479EEA445F07D011EA5E0FBDE8104059
:1011800004BF002100207047BDE8104070B5FFF794
:101190003BFE00BF40DFF63E83F000411046704743
:1011A0000000E0FF43004FEAD30C4FEA3C0C434001
:1011B0001FBF40070CF1605113F0FE4F70471CF049
:1011C000006F03D100200CF0004170470CF0004389
:1011D00043EA507010B540EACC0000F00EF800BFB2
:1011E000000000924FEA0001FFF75CBE4FF00041A3
:1011F0004FF00000A1F5002170470EF1020E2EF015
:10120000030E5EF8044B244204D44FEA4102B2F1CB
:101210007F4F11D84FEA4003B3F17F4F0CD80ED166
:101220004FEAD07CB2F17F4F0CEB4C0C0CF1020C6E
:1012300008BF4CEBD17C04E04FF0080C01E04FEA12
:10124000D17C0CEB4C0324FA03F404F00704B4F152
:10125000040C06D20EEB840CBDE810404CF0010CDF
:101260006047DFE80CF0070802024FF00040A0F5ED
:10127000800010BD0846420018BFD2F1807288BFBE
:1012800000F0004010BD4FF04070E1EE100A7047D2
:10129000000002000010014000C201000000000038
:1012A00001000000000000006300000000000000DA
:1012B000000000000102030406070809DC12000810
:1012C0000000002028000000C401000804130008EA
:1012D0002800002070060000E00100081C4F6E6529
:1012E0002072696E6720746F2072756C6520746857
:1012F000656D20616C6C0D0A0000000000000000AC
:041300000024F400D1
:0400000508000229C4
:00000001FF
