:020000040800F2
:10000000B00600202902000831020008330200086F
:10001000350200083702000839020008000000001D
:100020000000000000000000000000003B0200088B
:100030003D020008000000003F02000841020008E5
:10004000430200084302000843020008430200087C
:10005000430200084302000843020008430200086C
:10006000430200084302000843020008430200085C
:10007000430200084302000843020008430200084C
:10008000430200084302000843020008430200083C
:10009000430200084302000843020008430200082C
:1000A000430200084302000843020008430200081C
:1000B000430200084302000843020008430200080C
:1000C00043020008430200084302000843020008FC
:1000D00043020008430200084302000843020008EC
:1000E00043020008430200084302000843020008DC
:1000F00043020008430200084302000843020008CC
:1001000043020008430200084302000843020008BB
:1001100043020008430200084302000843020008AB
:10012000430200084302000843020008430200089B
:10013000430200084302000843020008430200088B
:10014000430200084302000843020008430200087B
:10015000430200084302000843020008430200086B
:10016000430200084302000843020008430200085B
:100170004302000843020008430200080000000098
:10018000430200084302000800F002F800F03CF8C7
:100190000AA090E8000C82448344AAF10107DA45E2
:1001A00001D100F031F8AFF2090EBAE80F0013F0F8
:1001B000010F18BFFB1A43F0010318473406000073
:1001C00054060000103A24BF78C878C1FAD8520704
:1001D00024BF30C830C144BF04680C6070470000C1
:1001E0000023002400250026103A28BF78C1FBD840
:1001F000520728BF30C148BF0B6070471FB500F0E1
:10020000E3FA1FBD10B510BD00F031F81146FFF73D
:10021000F5FF00F057FA00F04FF803B4FFF7F2FFD4
:1002200003BC00F057F80000094880470948004720
:10023000FEE7FEE7FEE7FEE7FEE7FEE7FEE7FEE796
:10024000FEE7FEE704480549054A064B70470000F3
:100250008104000889010008B0000020B0060020D9
:10026000B0020020B002002070477047704775460A
:1002700000F02CF8AE4605006946534620F0070012
:10028000854618B020B5FFF7DDFFBDE820404FF0F0
:1002900000064FF000074FF000084FF0000B21F070
:1002A0000701AC46ACE8C009ACE8C009ACE8C0093D
:1002B000ACE8C0098D46704710B50446AFF3008026
:1002C0002046BDE81040FFF7A8BF00000048704777
:1002D0005000002001491820ABBEFEE726000200B6
:1002E00070470000F0B5424E414C0836002804D05B
:1002F00001280AD0022810D068E0216841F00101ED
:10030000216021688907FCD560E0216841F48031D3
:10031000216021688903FCD558E0236823F08073AD
:10032000236023685B0EDB07FBD193684FF0FF353A
:1003300005EB5303936011B1012908D00EE0236847
:1003400043F00103236023689B07FCD506E0236884
:1003500043F48033236023689B03FCD5002343F6DA
:1003600098255B1CAB42FCDB214B1B1D1F68DFF893
:1003700084C007EA0C071F60D2E9007C47EA8C17AB
:10038000B2F808C0127B4FEA0C4C4CEA02621743E9
:100390001A6847EA8151114319600021491CA9429A
:1003A000FCDB31684FF6F042914331600021491C7B
:1003B000A942FCDB0021491CA942FCDB216841F079
:1003C000807121602168490EC907FBD0326831680D
:1003D00021F0030101430A4332603168C1F3810116
:1003E0008142FAD1306820F0F0003060F0BD0000AA
:1003F000003802400080BCF070B51D4E306800F03F
:100400000C001C4B1C4900280ED05D1004280DD098
:1004100008280DD04B603068184AC0F30310105CF8
:100420004A68C2404A6070BD4B60F4E74D60F2E735
:100430000F4A121F1068C0F38054106800F03F008C
:1004400034B1B5FBF0F01368C3F38813584305E0EB
:10045000B3FBF0F01368C3F3881358431268C2F378
:100460000142521C5200B0FBF2F04860D3E700009A
:10047000083802400024F40038000020E00700089B
:1004800010B51448016840F202721143016012482D
:10049000042404606421416002218160C46002463A
:1004A00001210220FFF71EFFFFF7A6FF0B480521E1
:1004B000017044701F2181700146406800F062F9AC
:1004C0000748016841F47001016005496006803900
:1004D000086010BD003C02404000002038000020B1
:1004E00088ED00E03EB504460749D1E9002389685C
:1004F000CDE9002302916946204600F027F8204606
:1005000000F05CF93EBD0000D4070008F0B54FF4E0
:100510007A7100FB01F700243C25CE0604E07562E9
:10052000012000F004F8641CBC42F8D3F0BD0021A7
:100530004FF0804207E01369DB07FCD0136923F01A
:1005400001031361491C8142F5D3704770B5B0F1C6
:10055000804F05D04C4B0022984202D1012301E08C
:10056000012200231A43494B984201D1012300E0A4
:1005700000231A43464B984201D1012300E0002397
:100580001A43444B984201D1012300E000231A434F
:10059000414B984201D1012300E000231A433F4B15
:1005A000984201D1012300E000231A433C4B9842BA
:1005B00001D1012300E000231A433A4B984201D1B4
:1005C000012300E000231A434FF001044FF47C762E
:1005D00009D0A0F1804292FBF6F29440324A1368AF
:1005E0001C4314603BE0314A904201D1012200E0FB
:1005F00000222F4B984201D1012300E000232D4D12
:100600001A430DD0294A54235242024492FBF3F27A
:100610000C23B2FBF3F294402A6814432C601EE0D2
:10062000254A904201D1012200E00022234B98424A
:1006300001D1012300E000231A43214B984201D14C
:10064000012300E000231A4309D01B4A524202440E
:1006500092FBF6F2103294402A6814432C60026830
:100660000B7822F0100242EA031203681A43026078
:100670008A8882620268036823F080031A4302605A
:100680008968C16270BD000000040040000800409D
:10069000000C004000100040001400400018004012
:1006A000001C004000200040403802400000014093
:1006B0000004014044380240004001400044014031
:1006C0000048014088B000F059F82848016841F01E
:1006D0000101016025481430016841F010010160FA
:1006E00023480168026822F4701242F40022114388
:1006F00001604168426822F40072114341608168E0
:10070000826842F44022114381600021C160426A44
:10071000436A23F47F6343F070031A434262154C2B
:10072000E160E06840F00800E060E06842F2040246
:100730001043E0602161A160A06840F45970A0609E
:10074000684600F040F80C4D6E1E0020327806E03E
:1007500021680906FCD5295C6160401C80B290428A
:10076000F6D3C820FFF7D2FEEFE700003038024092
:100770000000024000100140010000204FF08040C6
:10078000FFF7B0BE0C4802680B781A43036823F4E5
:10079000E0531A43026002684B781A43036823F45B
:1007A00060431A430260026889780A43016821F4B1
:1007B000F8110A430260704708380240016841F0AE
:1007C00001010160704770474FF04070E1EE100A80
:1007D00070470000010000000000000063000000FE
:1007E00000000000000000000102030406070809E1
:1007F000100800080000002040000000C4010008AC
:10080000500800084000002070060000E0010008C9
:100810003748656C6C6F204179757368204A61694F
:100820006E0D0A54686973206D6573736167652086
:1008300069732066726F6D2053544D3332205553C7
:10084000415254310D0A0A00000000000024F40057
:0400000508000229C4
:00000001FF
