:020000040800F2
:100000008806002029020008310200083302000897
:10001000350200083702000839020008000000001D
:100020000000000000000000000000003B0200088B
:100030003D020008000000003F02000841020008E5
:10004000430200084302000843020008430200087C
:10005000430200084302000843020008430200086C
:10006000430200084302000843020008430200085C
:10007000430200084302000843020008430200084C
:10008000430200084302000843020008430200083C
:10009000430200084302000843020008430200082C
:1000A000430200084302000843020008430200081C
:1000B000430200084302000843020008430200080C
:1000C00043020008430200084302000843020008FC
:1000D00043020008430200084302000843020008EC
:1000E00043020008430200084302000843020008DC
:1000F00043020008430200084302000843020008CC
:1001000043020008430200084302000843020008BB
:1001100043020008430200084302000843020008AB
:10012000430200084302000843020008430200089B
:10013000430200084302000843020008430200088B
:10014000430200084302000843020008430200087B
:10015000430200084302000843020008430200086B
:10016000430200084302000843020008430200085B
:100170004302000843020008430200080000000098
:10018000430200084302000800F002F800F03CF8C7
:100190000AA090E8000C82448344AAF10107DA45E2
:1001A00001D100F031F8AFF2090EBAE80F0013F0F8
:1001B000010F18BFFB1A43F0010318473004000079
:1001C00050040000103A24BF78C878C1FAD852070A
:1001D00024BF30C830C144BF04680C6070470000C1
:1001E0000023002400250026103A28BF78C1FBD840
:1001F000520728BF30C148BF0B6070471FB500F0E1
:10020000E7F91FBD10B510BD00F031F81146FFF73A
:10021000F5FF00F067F900F04FF803B4FFF7F2FFC5
:1002200003BC00F057F80000094880470948004720
:10023000FEE7FEE7FEE7FEE7FEE7FEE7FEE7FEE796
:10024000FEE7FEE704480549054A064B70470000F3
:100250008104000889010008880000208806002029
:10026000880200208802002070477047704775465A
:1002700000F02CF8AE4605006946534620F0070012
:10028000854618B020B5FFF7DDFFBDE820404FF0F0
:1002900000064FF000074FF000084FF0000B21F070
:1002A0000701AC46ACE8C009ACE8C009ACE8C0093D
:1002B000ACE8C0098D46704710B50446AFF3008026
:1002C0002046BDE81040FFF7A8BF00000048704777
:1002D0002800002001491820ABBEFEE726000200DE
:1002E00070470000F0B5424E414C0836002804D05B
:1002F00001280AD0022810D068E0216841F00101ED
:10030000216021688907FCD560E0216841F48031D3
:10031000216021688903FCD558E0236823F08073AD
:10032000236023685B0EDB07FBD193684FF0FF353A
:1003300005EB5303936011B1012908D00EE0236847
:1003400043F00103236023689B07FCD506E0236884
:1003500043F48033236023689B03FCD5002343F6DA
:1003600098255B1CAB42FCDB214B1B1D1F68DFF893
:1003700084C007EA0C071F60D2E9007C47EA8C17AB
:10038000B2F808C0127B4FEA0C4C4CEA02621743E9
:100390001A6847EA8151114319600021491CA9429A
:1003A000FCDB31684FF6F042914331600021491C7B
:1003B000A942FCDB0021491CA942FCDB216841F079
:1003C000807121602168490EC907FBD0326831680D
:1003D00021F0030101430A4332603168C1F3810116
:1003E0008142FAD1306820F0F0003060F0BD0000AA
:1003F000003802400080BCF070B51D4E306800F03F
:100400000C001C4B1C4900280ED05D1004280DD098
:1004100008280DD04B603068184AC0F30310105CF8
:100420004A68C2404A6070BD4B60F4E74D60F2E735
:100430000F4A121F1068C0F38054106800F03F008C
:1004400034B1B5FBF0F01368C3F38813584305E0EB
:10045000B3FBF0F01368C3F3881358431268C2F378
:100460000142521C5200B0FBF2F04860D3E700009A
:10047000083802400024F40010000020DA050008CB
:1004800010B51448016840F202721143016012482D
:10049000042404606421416002218160C46002463A
:1004A00001210220FFF71EFFFFF7A6FF0B480521E1
:1004B000017044701F2181700146406800F06CF8A3
:1004C0000748016841F47001016005496006803900
:1004D000086010BD003C0240180000201000002001
:1004E00088ED00E02748016841F0010101602548DE
:1004F0001430016841F0100101602348016802686E
:1005000022F4701242F420121143016041684268E3
:1005100022F40072114341608168826842F44022F3
:10052000114381600022C260416A436A23F47F6301
:1005300043F07003194341621449CA60C86840F02F
:100540000800C860C86842F204031843C8600A6122
:100550008A60886840F4597088600D4B0D4C581EB5
:100560000578002007E00A68D209D207FBD01A5CA0
:100570004A60401C80B2A842F5D30020401CA04233
:10058000FCDBEEE730380240000002400010014082
:1005900001000020809698000C4802680B781A43EE
:1005A000036823F4E0531A43026002684B781A434D
:1005B000036823F460431A430260026889780A439F
:1005C000016821F4F8110A430260704708380240BC
:1005D0004FF04070E1EE100A70470000000000008C
:1005E0000000010203040607080900000C060008C9
:1005F0000000002018000000C401000824060008C4
:100600001800002070060000E00100080E48656C2C
:100610006C6F2061797573680D0A0000000000009E
:040620000024F400BE
:0400000508000229C4
:00000001FF
