:020000040800F2
:10000000280B0020290200083102000833020008F2
:10001000350200083702000839020008000000001D
:100020000000000000000000000000003B0200088B
:100030003D020008000000003F02000841020008E5
:10004000430200084302000843020008430200087C
:10005000430200084302000843020008430200086C
:10006000430200084302000843020008430200085C
:10007000430200084302000843020008430200084C
:10008000430200084302000843020008430200083C
:10009000430200084302000843020008430200082C
:1000A000430200084302000843020008430200081C
:1000B000430200084302000843020008430200080C
:1000C00043020008430200084302000843020008FC
:1000D00043020008430200084302000843020008EC
:1000E00043020008430200084302000843020008DC
:1000F00043020008430200084302000843020008CC
:1001000043020008430200084302000843020008BB
:1001100043020008430200084302000843020008AB
:10012000430200084302000843020008430200089B
:10013000430200084302000843020008430200088B
:10014000430200084302000843020008430200087B
:10015000430200084302000843020008430200086B
:10016000430200084302000843020008430200085B
:100170004302000843020008430200080000000098
:10018000430200084302000800F002F800F03CF8C7
:100190000AA090E8000C82448344AAF10107DA45E2
:1001A00001D100F031F8AFF2090EBAE80F0013F0F8
:1001B000010F18BFFB1A43F0010318479005000018
:1001C000B0050000103A24BF78C878C1FAD85207A9
:1001D00024BF30C830C144BF04680C6070470000C1
:1001E0000023002400250026103A28BF78C1FBD840
:1001F000520728BF30C148BF0B6070471FB500F0E1
:100200008BFA1FBD10B510BD00F031F81146FFF795
:10021000F5FF00F01BFA00F04FF803B4FFF7F2FF10
:1002200003BC00F057F80000094880470948004720
:10023000FEE7FEE7FEE7FEE7FEE7FEE7FEE7FEE796
:10024000FEE7FEE704480549054A064B70470000F3
:10025000150500088901000828050020280B00204A
:100260002807002028070020704770477047754610
:1002700000F02CF8AE4605006946534620F0070012
:10028000854618B020B5FFF7DDFFBDE820404FF0F0
:1002900000064FF000074FF000084FF0000B21F070
:1002A0000701AC46ACE8C009ACE8C009ACE8C0093D
:1002B000ACE8C0098D46704710B50446AFF3008026
:1002C0002046BDE81040FFF7A8BF00000048704777
:1002D0001400002001491820ABBEFEE726000200F2
:1002E0007047000010B5214B204C283B00281FD040
:1002F00001281CD1206840F0040020601C480468DC
:1003000044F4002404601A480830046844F440248B
:10031000046018681C6861F39F74204318601868B3
:10032000196820F0605040EAC2600843186010BDB0
:10033000206840F0010020600E48046844F4003456
:100340000460846844F440348460186820F4C00079
:1003500040EA41501968084318601868196820F08D
:10036000E06040EA02600843186010BD3038024087
:100370000008024000000240F0B5424E414C0836F1
:10038000002804D001280AD0022810D06CE021688F
:1003900041F00101216021688907FCD564E02168F2
:1003A00041F48031216021688903FCD55CE0236839
:1003B00023F08073236023685B0EDB07FBD1936817
:1003C0004FF0FF3505EB5303936011B1012908D0BD
:1003D0000EE0236843F00103236023689B07FCD5EC
:1003E00006E0236843F48033236023689B03FCD535
:1003F000002343F698255B1CAB42FCDB214B1B1D05
:100400001F68DFF884C007EA0C071F60D2E9007C90
:1004100047EA8C17B2F808C0127B4FEA0C4C4CEA42
:10042000026217431A6847EA81511143196000219B
:10043000491CA942FCDB31684FF6F0429143316020
:100440000021491CA942FCDB316841F48051316034
:100450000021491CA942FCDB216841F08071216028
:100460002168490EC907FBD03168326822F00302C7
:100470000243114331603168C1F381018142FAD1F5
:10048000F0BD0000003802400080BCF070B51D4E89
:10049000306800F00C001C4B1C4900280ED05D1089
:1004A00004280DD008280DD00B603068184AC0F31E
:1004B0000310105C0A68C2400A6070BD0B60F4E76C
:1004C0000D60F2E70F4A121F1068C0F380541068E5
:1004D00000F03F0034B1B5FBF0F01368C3F38813AC
:1004E000584305E0B3FBF0F01368C3F38813584397
:1004F0001268C2F30142521C5200B0FBF2F00860D5
:10050000D3E70000083802400024F4000000002077
:100510003C07000810B5062200210120FFF7E2FE8B
:100520000F48016840F20272114301600D48042136
:100530000160602242608160C160024601210220A8
:10054000FFF71AFFFFF7A2FF0748016841F47001A7
:10055000016005494FF000608039086010BD00005F
:10056000003C02400400002088ED00E04FF47A7166
:1005700048434FF0E021002303E08B610A69D20376
:10058000FCD5401E421CF8D17047000030B50E4B20
:100590004FF47A74034493FBF4F301249C400B4B17
:1005A0001D682C431C6004684B00032199400568BA
:1005B0008C432C430460C4689A408C43C168144344
:1005C0000C43C46030BD00000000FEBF3038024064
:1005D0002DE9F041DDF818C01A4C4FF47A75044447
:1005E00094FBF5F5012606FA05F4174D2F683C43F8
:1005F0002C6007684C000325A540AF4306FA04F8B9
:1006000047EA0807D0F8008047EA0807076047680C
:100610008E408A40B743416817430F434760816863
:10062000A340A9438268194311438160C1680CFA51
:1006300004FCA943C26841EA0C011143C160BDE852
:10064000F08100000000FEBF3038024008B50025F0
:10065000244C02232A46072120460095FFF7B8FFC5
:10066000214E022300220C2130460095FFF7B0FFF7
:1006700002230022062120460095FFF7A9FF012250
:1006800004213046FFF782FF2521002000F02EF8DC
:1006900030690009C0F3000080F0010008B1322584
:1006A00001E04FF4FA752846FFF760FFA06940F0BB
:1006B0008000A061A06940F04000A061B06940F4F2
:1006C0008050B0612846FFF751FFA06940F4000058
:1006D000A061A06940F48000A061B06940F0805042
:1006E000B061D5E70000024000100240491EB1F1A0
:1006F000807F01D3012070474FF0E0220023136177
:10070000516193611169012303EB400040F0040043
:1007100001431161002070474FF04070E1EE100A74
:100720007047000001000001400000008000002030
:1007300080040020000500200000000000000000F0
:100740000000000001020304060708096C07000806
:100750000000002004000000C40100087007000829
:1007600004000020240B0000E00100080024F40035
:040000050800018965
:00000001FF
