:020000040800F2
:1000000078060020290200083102000833020008A7
:10001000350200083702000839020008000000001D
:100020000000000000000000000000003B0200088B
:100030003D020008000000003F02000841020008E5
:10004000430200084302000843020008430200087C
:10005000430200084302000843020008430200086C
:10006000430200084302000843020008430200085C
:10007000430200084302000843020008430200084C
:10008000430200084302000843020008430200083C
:10009000430200084302000843020008430200082C
:1000A000430200084302000843020008430200081C
:1000B000430200084302000843020008430200080C
:1000C00043020008430200084302000843020008FC
:1000D00043020008430200084302000843020008EC
:1000E00043020008430200084302000843020008DC
:1000F00043020008430200084302000843020008CC
:1001000043020008430200084302000843020008BB
:1001100043020008430200084302000843020008AB
:10012000430200084302000843020008430200089B
:10013000430200084302000843020008430200088B
:10014000430200084302000843020008430200087B
:10015000430200084302000843020008430200086B
:10016000430200084302000843020008430200085B
:100170004302000843020008430200080000000098
:10018000430200084302000800F002F800F03CF8C7
:100190000AA090E8000C82448344AAF10107DA45E2
:1001A00001D100F031F8AFF2090EBAE80F0013F0F8
:1001B000010F18BFFB1A43F001031847EC060000BB
:1001C0000C070000103A24BF78C878C1FAD852074B
:1001D00024BF30C830C144BF04680C6070470000C1
:1001E0000023002400250026103A28BF78C1FBD840
:1001F000520728BF30C148BF0B6070471FB500F0E1
:1002000040FB1FBD10B510BD00F031F81146FFF7DF
:10021000F5FF00F0FBFA00F04FF803B4FFF7F2FF30
:1002200003BC00F057F80000094880470948004720
:10023000FEE7FEE7FEE7FEE7FEE7FEE7FEE7FEE796
:10024000FEE7FEE704480549054A064B70470000F3
:1002500015050008890100087800002078060020B4
:10026000780200207802002070477047704775467A
:1002700000F02CF8AE4605006946534620F0070012
:10028000854618B020B5FFF7DDFFBDE820404FF0F0
:1002900000064FF000074FF000084FF0000B21F070
:1002A0000701AC46ACE8C009ACE8C009ACE8C0093D
:1002B000ACE8C0098D46704710B50446AFF3008026
:1002C0002046BDE81040FFF7A8BF00000048704777
:1002D0001400002001491820ABBEFEE726000200F2
:1002E0007047000010B5214B204C283B00281FD040
:1002F00001281CD1206840F0040020601C480468DC
:1003000044F4002404601A480830046844F440248B
:10031000046018681C6861F39F74204318601868B3
:10032000196820F0605040EAC2600843186010BDB0
:10033000206840F0010020600E48046844F4003456
:100340000460846844F440348460186820F4C00079
:1003500040EA41501968084318601868196820F08D
:10036000E06040EA02600843186010BD3038024087
:100370000008024000000240F0B5424E414C0836F1
:10038000002804D001280AD0022810D06CE021688F
:1003900041F00101216021688907FCD564E02168F2
:1003A00041F48031216021688903FCD55CE0236839
:1003B00023F08073236023685B0EDB07FBD1936817
:1003C0004FF0FF3505EB5303936011B1012908D0BD
:1003D0000EE0236843F00103236023689B07FCD5EC
:1003E00006E0236843F48033236023689B03FCD535
:1003F000002343F698255B1CAB42FCDB214B1B1D05
:100400001F68DFF884C007EA0C071F60D2E9007C90
:1004100047EA8C17B2F808C0127B4FEA0C4C4CEA42
:10042000026217431A6847EA81511143196000219B
:10043000491CA942FCDB31684FF6F0429143316020
:100440000021491CA942FCDB316841F48051316034
:100450000021491CA942FCDB216841F08071216028
:100460002168490EC907FBD03168326822F00302C7
:100470000243114331603168C1F381018142FAD1F5
:10048000F0BD0000003802400080BCF070B51D4E89
:10049000306800F00C001C4B1C4900280ED05D1089
:1004A00004280DD008280DD00B603068184AC0F31E
:1004B0000310105C0A68C2400A6070BD0B60F4E76C
:1004C0000D60F2E70F4A121F1068C0F380541068E5
:1004D00000F03F0034B1B5FBF0F01368C3F38813AC
:1004E000584305E0B3FBF0F01368C3F38813584397
:1004F0001268C2F30142521C5200B0FBF2F00860D5
:10050000D3E70000083802400024F4000000002077
:100510009808000810B5062200210120FFF7E2FE2E
:100520000F48016840F20272114301600D48042136
:1005300001606422426002228260C16002460121A1
:100540000220FFF719FFFFF7A1FF0748016841F4F8
:100550007001016004494FF000608039086010BDEF
:10056000003C02400400002088ED00E03EB5044657
:100570000749D1E900238968CDE900230291694642
:10058000204600F027F8204600F076F93EBD000036
:100590008C080008F0B54FF47A7100FB01F70024D5
:1005A0003C25CE0604E07562012000F004F8641CCE
:1005B000BC42F8D3F0BD00214FF0804207E0136940
:1005C000DB07FCD0136923F001031361491C81424E
:1005D000F5D3704770B5B0F1804F05D04C4B002279
:1005E000984202D1012301E0012200231A43494B22
:1005F000984201D1012300E000231A43464B984260
:1006000001D1012300E000231A43444B984201D159
:10061000012300E000231A43414B984201D10123FA
:1006200000E000231A433F4B984201D1012300E030
:1006300000231A433C4B984201D1012300E00023E0
:100640001A433A4B984201D1012300E000231A4398
:100650004FF001044FF47C7609D0A0F1804292FB68
:10066000F6F29440324A13681C4314603BE0314A6E
:10067000904201D1012200E000222F4B984201D18B
:10068000012300E000232D4D1A430DD0294A5423A5
:100690005242024492FBF3F20C23B2FBF3F2944079
:1006A0002A6814432C601EE0254A904201D10122A1
:1006B00000E00022234B984201D1012300E00023F7
:1006C0001A43214B984201D1012300E000231A4331
:1006D00009D01B4A5242024492FBF6F21032944077
:1006E0002A6814432C6002680B7822F0100242EA58
:1006F000031203681A4302608A88826202680368F0
:1007000023F080031A4302608968C16270BD000053
:100710000004004000080040000C004000100040B1
:100720000014004000180040001C00400020004061
:1007300040380240000001400004014044380240BB
:1007400000400140004401400048014030B50E4BDC
:100750004FF47A74034493FBF4F301249C400B4B55
:100760001D682C431C6004684B00032199400568F8
:100770008C432C430460C4689A408C43C168144382
:100780000C43C46030BD00000000FEBF30380240A2
:100790002DE9F041DDF818C01A4C4FF47A75044485
:1007A00094FBF5F5012606FA05F4174D2F683C4336
:1007B0002C6007684C000325A540AF4306FA04F8F7
:1007C00047EA0807D0F8008047EA0807076047684B
:1007D0008E408A40B743416817430F4347608168A2
:1007E000A340A9438268194311438160C1680CFA90
:1007F00004FCA943C26841EA0C011143C160BDE891
:10080000F08100000000FEBF3038024008B5002033
:10081000154D02460090022307212846FFF7B8FF36
:10082000124E012204213046FFF790FF00F020F81D
:100830004FF4FA6730690009C0F3000080F001004E
:1008400008B1322400E03C462046FFF7A3FEA86929
:1008500040F08000A8612046FFF79CFEA86940F4A4
:100860000000A861E6E7000000000240001002401E
:100870004FF08040FFF77ABE016841F0010101604E
:1008800070474FF04070E1EE100A70470100000021
:1008900000000000630000000000000000000000F5
:1008A0000102030406070809C80800080000002028
:1008B00004000000C4010008CC0800080400002067
:0C08C00074060000E00100080024F400B1
:040000050800018965
:00000001FF
